S31580002000002000207930008051CB01809B27008002
S315800020109B2700809B2700809B2700800000000074
S3158000202000000000000000000000000061CB01807D
S3158000203071300080000000006726008071CB01802F
S3158000204031CB018031CB018031CB018031CB018016
S3158000205031CB018031CB018031CB018031CB018006
S3158000206031CB018031CB018031CB018031CB0180F6
S3158000207031CB018031CB018031CB018031CB0180E6
S315800022C031CB018000000000DFF80CD000F084FEE6
S315800022D0004800473586048000200020AD4908600C
S315800022E0BFF34F8F7047AC490860BFF34F8F70477D
S315800022F04FF00000A949AA4A08601060BFF34F8FCB
S31580002300BFF36F8F704700B5FFF7F2FFA5490868E6
S3158000231040F4003040F480200860BFF34F8FBFF355
S315800023206F8F5DF804EB70479E49086820F4003093
S315800023300860BFF34F8FBFF36F8F70479A4800686E
S315800023404FEA104000F00F0000F102004FF001014B
S3158000235001FA00F07047954803684FF007024FF086
S3158000236000004FF00001134214BF401C05E04FEA05
S31580002370C20201F101010729F5DB70478B490B6821
S315800023804FF007024FF0030100FB01F023FA00F340
S3158000239003EA020010F0060F14BF012000207047E8
S315800023A04FEA400082490860BFF34F8F8148016839
S315800023B04FEA513147F6FF7201EA020000F101004F
S315800023C070474FF000014FF00102824204D24FEA7B
S315800023D0420201F10101F8E7084670474FEA4000E2
S315800023E072490860BFF34F8F724801684FEAD10186
S315800023F040F2FF3201EA020000F1010070474FEA25
S3158000240040006A490860BFF34F8F6A4801684FF001
S31580002410070201EA020000F104004FF0010101FA0F
S3158000242000F07047F446FFF796FF0446002C41D033
S315800024304FF00007A7423DDA3846FFF79FFF002896
S3158000244035D03846FFF7ACFF06463846FFF7C6FF5D
S3158000245005463846FFF7D3FFFFF7B3FF8346284686
S31580002460FFF7AFFF82464FF02000A0EB0A0A4FF03D
S315800024700009B1451BDA4FF00008A84514DA4FF081
S3158000248000004FEA470140EA010009FA0BF140EAF1
S31580002490010008FA0AF140EA010047490860BFF3E3
S315800024A04F8F08F10108E8E709F10109E1E707F133
S315800024B00107BFE7E6467047F446FFF74CFF044640
S315800024C0002C41D0A4F10107002F3DDB3846FFF7F1
S315800024D055FF002835D03846FFF762FF0646384656
S315800024E0FFF77CFF05463846FFF789FFFFF769FF50
S315800024F083462846FFF765FF82464FF02000A0EB13
S315800025000A0A4FF00009B1451BDA4FF00008A845CA
S3158000251014DA4FF000004FEA470140EA010009FA59
S315800025200BF140EA010008FA0AF140EA010023496A
S315800025300860BFF34F8F08F10108E8E709F1010948
S31580002540E1E7A7F10107BFE7E64670472DE9FF5FA0
S31580002550FFF701FF002808D0FFF764FF11490868DC
S3158000256020F480300860BFF34F8FBDE8FF5F70476F
S315800025702DE9FF5FFFF7EFFE002808D0FFF79CFFED
S315800025800849086840F480300860BFF34F8FBDE883
S31580002590FF5F70475CEF00E068EF00E050EF00E01F
S315800025A078EF00E014ED00E07CED00E078ED00E0EF
S315800025B084ED00E080ED00E06CEF00E060EF00E08D
S315800025C0734600F031F808490A6812F0030F02D00A
S315800025D022F003020A60BFF34F8F30BFBFF34F8FE5
S315800025E000F026F89E46704754C00F402DE9FF5FE5
S315800025F0FFF7ACFF0B494FF000000860BFF34F8F29
S31580002600BDE8FF5F70472DE9FF5FFFF70BFFFFF720
S3158000261053FF04494FF001000860BFF34F8FBDE8B8
S31580002620FF5F704794ED00E0EFF3108072B670475D
S3158000263080F31088704710B4EFF3108472B6374A6F
S315800026401368012B04D04FF001031360344A1060E5
S31580002650344A116034484FF08051016062B684F389
S31580002660108810BC7047EFF3108272B62B48016851
S3158000267029B34FF0000101602948016879B1EFF371
S31580002680098121E9F00F4FF000041EF0100F04BFFE
S31580002690012421ED108B41F8044D00680160214929
S315800026A0096809684EF0100E08C9002B1CBFB1ECF2
S315800026B0108B2EF0100EB1E8F00F81F3098882F3AB
S315800026C010884EF0040E70471649086072B6EFF314
S315800026D0148222F0040282F3148811494FF000001C
S315800026E008600E494FF0010008600F484FF0805196
S315800026F001600E480068006800BF80F3088862B6F3
S315800027007047704700BFEFF30580704790FAA0F0DE
S31580002710B0FA80F000F1010070477047741B012009
S315800027206C1B0120701B012004ED00E008ED00E029
S315800027301B48046145618661C761C0F82080C0F886
S315800027402490C0F828A0C0F82CB0C0F84CE0EFF375
S3158000275008814164EFF309818164EFF308811EF0FB
S31580002760040F18BFEFF309810A6802604A68426065
S315800027708A688260CA68C2600A6902634A6982633B
S315800027808A69C263CA69026401F12002426300B5A4
S315800027901AF0F6F95DF804EB704702480047FEE749
S315800027A004CF0320312700802DE9F05F0546002005
S315800027B092469B4688460646814640241BE028462C
S315800027C041464746224600F02FF853465A46C01ADD
S315800027D0914110D311461846224600F016F82D1A5C
S315800027E067EB01084F4622460120002100F00DF8D4
S315800027F017EB00094E41201EA4F10104DFDC484698
S3158000280031462A464346BDE8F09F202A04DB203A1B
S3158000281000FA02F1002070479140C2F1200320FAAD
S3158000282003F3194390407047202A04DB203A21FAAB
S3158000283002F00021704721FA02F3D040C2F1200253
S315800028409140084319467047A0F16101192900D8C3
S31580002850203870470649074A0868504343F23902D0
S3158000286010440860400870470149086070470000BE
S31580002870601C01206D4EC64110B500683C22B0FB3D
S31580002880F2F302FB1303B0FBF2F00B60B0FBF2F342
S3158000289002FB1303B0FBF2F018224B60B0FBF2F39D
S315800028A002FB1303B0FBF2F0021D8B600723B2FB21
S315800028B0F3F403FB1422800040F2B55300F66C302B
S315800028C08A61B0FBF3F2B0FBF3F403FB14004432ED
S315800028D080084A61C8613B2802D3920700D0401C19
S315800028E00022074C13460A61E25C824203D8801AB2
S315800028F05B1C0B61F8E7401CC860084610BD0000F1
S31580002900FC40098038B5D0E90221491E01EB41011E
S3158000291002EBC1014268C1EB011102EB8101026841
S31580002920C1EB011102EB8102D0E9043101EB4101D7
S3158000293003EB81013023A1F5527191FBF3F4174D1E
S315800029406C4302EBC41291FBF3F403FB1411009267
S315800029501A2902DB124B1A4400920C2291FBF2F3E5
S31580002960104C6343009C04EBC313009391FBF2F37A
S3158000297002FB13110C4A08E0491E40F2A324535C63
S315800029806343009C04EBC31300930029F4DC0146E7
S31580002990684600F08BFA009838BD00003F0C0F00A7
S315800029A08051010067C20300084109802DE9F04F7C
S315800029B086B08946002186466E464FF0070A8B46CA
S315800029C0009256F8214014F8012B46F821404AB16E
S315800029D0252A0DD0B9F1010F06D900F8012BA9F1EE
S315800029E00109B3E0491EB1E0002006B0BDE8F08FD2
S315800029F014F8012B46F82140002AF3D002244FF028
S31580002A00300C5A2AEDD019DC532A5ED00EDC482AC7
S31580002A103FD006DC252ADDD0412A2AD0422AE0D1C1
S31580002A202CE0492A37D04D2ADBD142E0543A062A97
S31580002A30D7D2DFE802F0654C8B5665676A2A32D0BA
S31580002A4008DCA2F16102052ACBD2DFE802F010157C
S31580002A501A1C1E00772A41D004DC6D2A26D0702AE3
S31580002A6074D128E0782A49D0792A6FD14BE040A2E8
S31580002A7000E046A29C6975E053A200E05E4A1C69AC
S31580002A8070E05EA21DE0DA6840E04FF0200CDA6864
S31580002A903CE09A683AE09A680C25173292FBF5F783
S31580002AA005FB172203E00324DA6900E01A69521C49
S31580002AB02CE05A682AE09A680C2A01DA53A200E0D0
S31580002AC053A2491C46F8212040E01A681EE0D3E94B
S31580002AD00652521BD21D92FBFAF217E001249A6924
S31580002AE014E09D695246AD1D95FBF2F70AFB17551A
S31580002AF0DF697D1BED1D95FBFAF207E045A2E0E755
S31580002B0047A2DEE704245A6902F26C7205AD8DF89D
S31580002B1014B00A2712E092FBF7F807FB182892FBFD
S31580002B20F7F208F1300805F8018D3AB901E005F8A9
S31580002B3001CDB4F10008A4F10104F8DCB4F1000879
S31580002B40A4F10104E7DC491C46F821500029BFF6B0
S31580002B5038AF80F800B0A0EB0E0046E712F8015BB4
S31580002B60002DFBD1251EA4F10104F7DCA9E70000A6
S31580002B7053756E004D6F6E00547565005765640021
S31580002B8054687500467269005361740053756E64AB
S31580002B906179004D6F6E6461790054756573646107
S31580002BA079005765646E65736461790054687572DF
S31580002BB073646179004672696461790053617475E2
S31580002BC072646179000000004A616E0046656200A9
S31580002BD04D617200417072004D6179004A756E00D8
S31580002BE04A756C0041756700536570004F637400C9
S31580002BF04E6F760044656300144109802561202567
S31580002C00622025652025542025590000414D00006D
S31580002C10504D0000256D2F25642F2579000000007A
S31580002C2025483A254D3A25530000000010B5441A30
S31580002C300346944209D28418114403E011F8013DF9
S31580002C4004F8013D521EF9D210BD40EA0104A407E2
S31580002C5003D009E010C9121F10C3042AFAD203E078
S31580002C6011F8014B03F8014B521EF9D210BDD2B2B6
S31580002C7001E000F8012B491EFBD270470022F6E7DF
S31580002C8010B513460A4604461946FFF7F0FF20465C
S31580002C9010BD421E12F8013F002BFBD111F8013BFB
S31580002CA002F8013B002BF9D1704730B505462A461C
S31580002CB00B4612F8010B13F8014B08B1A042F8D06D
S31580002CC01CB1002802D06D1CF1E7284630BD10B536
S31580002CD0044604E00B7800F8013B03B1491C521E00
S31580002CE0F8D2204610BDCAB2401E10F8011F8A4293
S31580002CF002D00029F9D100207047421C10F8011B30
S31580002D000029FBD1801A704710B5002200E0521CC2
S31580002D10835C8C5CA34201D1002BF8D1D8B2E1B29E
S31580002D20401A10BD30B504460020034600E05B1C07
S31580002D30934203D2E05CCD5C401BF8D030BD0346A5
S31580002D4011F8012B00F8012B002AF9D1184670479B
S31580002D5030B505460020034600E05B1C934205D251
S31580002D60EC5CC85C201A01D1002CF6D130BD2DE96F
S31580002D70F04791460F4680460446002614F8015BCC
S31580002D802DB100F073F80068405DC007F6D12B2D99
S31580002D9002D02D2D18D0641E4A463946204600F0B2
S31580002DA0CBF827B13968A14201D1C7F800807105F7
S31580002DB04FF002040BD54042002803DD00F056FA9E
S31580002DC00460A007BDE8F08746F48066E4E7002843
S31580002DD0F8DA00F04BFA04606FF00040F2E72DE974
S31580002DE0F05F93460F4680460446002600F03EFA82
S31580002DF0D0F80090824614F8015B2DB100F036F8C9
S31580002E000068405DC007F6D12B2D02D02D2D1AD03B
S31580002E10641E0021CAF800105A463946204600F042
S31580002E208BF8014627B13868A04201D1C7F80080E7
S31580002E30DAF80000022809D0CAF80090700505D596
S31580002E404842BDE8F09F46F48066E2E70846F8E728
S31580002E5070B5064600F00AFA046805460A22002183
S31580002E603046FFF784FF2C6070BD00000048704735
S31580002E70EC41098010B50446FFF7F8FF0068005D55
S31580002E80202801D0002010BD012010BD10B50446B9
S31580002E90FFF7ECFF0068005D00F03E0010BD00000B
S31580002EA0014900F003B80000F0D7052010B500688E
S31580002EB03C22B0FBF2F302FB1303B0FBF2F00B6093
S31580002EC0B0FBF2F302FB1303B0FBF2F018224B6067
S31580002ED0B0FBF2F302FB1303B0FBF2F0021D8B6032
S31580002EE00723B2FBF3F403FB1422800040F2B553B0
S31580002EF000F66C308A61B0FBF3F2B0FBF3F403FBAF
S31580002F001400443280084A61C8613B2802D3920784
S31580002F1000D0401C0022074C13460A61E25C8242C4
S31580002F2003D8801A5B1C0B61F8E7401CC860084612
S31580002F3010BD0000F04109802DE9F05F82460078DF
S31580002F40002715468B460AF10104B946302801D080
S31580002F509DB113E014F8010B0127782803D0582877
S31580002F6001D045B10AE00DB1102D07D100271025FB
S31580002F7014F8010B02E0082500E00A250026B04679
S31580002F800EE005FB080005FB06F1012701EB104664
S31580002F901FFA80F8B6F5803F00D3B94614F8010BC6
S31580002FA0294600F02BF80028EBDABBF1000F05D09C
S31580002FB00FB1641E00E05446CBF80040B9F1000F13
S31580002FC006D000F053F902210160C81EBDE8F09FCB
S31580002FD048EA0640FAE70000064C074D06E0E0683E
S31580002FE040F0010394E8070098471034AC42F6D3CA
S31580002FF0FFF76EF9E8790980187A09803A2800D2B5
S31580003000303820F02002412A01D3A2F137008842CD
S3158000301001D34FF0FF30704770B58C1810F8015B04
S3158000302015F0070301D110F8013B2A1106D110F8DB
S31580003030012B03E010F8016B01F8016B5B1EF9D1DF
S315800030402B0705D40023521E0DD401F8013BFAE765
S3158000305010F8013BCB1A921C03E013F8015B01F8D0
S31580003060015B521EF9D5A142D8D3002070BD000065
S31580003070004800477130008072B6FFF71DFA21487C
S3158000308000684FF000011F480160BFF34F8F1E4854
S315800030904FF080610160BFF34F8F4FF00071016088
S315800030A0BFF34F8F01684FF0FF3118480160184811
S315800030B00160184801601848016018480160184886
S315800030C00160184801607B464FF000418B4204D373
S315800030D06FF000518B4200D208E07B464FF0C04132
S315800030E08B420BD34FF0C8418B4207D20E484FF02C
S315800030F004010160BFF34F8F00F01AF800F054F816
S315800031000A48004710E000E004ED00E068C00F4088
S315800031106CC00F4070C00F4074C00F4078C00F4025
S315800031207CC00F4080C00F4000000B40C922008049
S315800031301A48016821F0010121F002010160BFF304
S315800031404F8F1648016821F004010160BFF34F8F4D
S315800031504FF0AA3112480160BFF34F8FBFF36F8FD4
S315800031600E48016841F004010160BFF34F8FBFF341
S315800031706F8F0C48016821F4702121F4700141F4AD
S3158000318020010160BFF34F8F0448016841F00201BE
S315800031900160BFF34F8FBFF36F8F704740C00A4007
S315800031A044C00A4038C00A400C490D4BDFF834C091
S315800031B00A1D4DF8044D081F4FF6FF740B60C1F8C9
S315800031C000C014600168084A21F0800141F02001A6
S315800031D00160064810605DF8044B704704C00B40E0
S315800031E002A680B420C528D908ED00E00020008022
S315800031F00FB41CB50A46521ECDE9000207A9054B3D
S315800032006A46069817F04EFD009A002111701CBC84
S315800032105DF814FBF1BB01800FB4084B10B504A90F
S3158000322002AA039817F03EFD044602A9002018F072
S31580003230EAFC204610BC5DF814FB000007BC018048
S31580003240002101604160018170470A6802600B7944
S3158000325003717047C9B241EA012141EA0141016027
S315800032604160816070477047704700000048704732
S31580003270641C012091F85820012A1CBF6FF022009F
S315800032807047D0F89420536C8B4203D01A465B6CFF
S315800032908B42FBD138B40B6813604B6C5364D0F807
S315800032A08420BFF34F8F5268D0F8843002F020021A
S315800032B0BFF34F8F5A60BFF34F8FD0F88420BFF390
S315800032C04F8F1268D0F8843042F04002BFF34F8FA0
S315800032D01A60BFF34F8FD0F88420BFF34F8F1268E8
S315800032E01A240A254FF47A7C22460094931E921E55
S315800032F00093002AFADC5A1E0092ACF1010CBCF154
S31580003300000FF1DCD0F88420BFF34F8F52686D1E1A
S3158000331012F0200201D1002DE4D1D0F88400BFF351
S315800033204F8F4260BFF34F8F022081F8580038BC20
S315800033300020704770B50446808810F4006FA0683E
S3158000334002D01FF037FC01E01FF0B2FB0E4D06469F
S31580003350214605F11C0028F013FB002812D00B48EB
S3158000336019F07CFD002C0DD009A01DF0F5FA05F1B1
S315800033701C00214628F004FB20B1044819F06EFD9C
S31580003380002CF1D1304670BDC8430320343B008009
S315800033906C6666735F636C6F73655F66696C653A4E
S315800033A02063616E206E6F74206672656520666923
S315800033B06C6520646573630A0000000070B506467C
S315800033C000F0A4FC040033D041F27470204405461A
S315800033D023F010F820B11DA029461DF0BDFA0BE0A0
S315800033E0314620461CF0EAFFA0B11FA031461DF0F1
S315800033F0B3FA284626F0BEFB41F25C70204423F0E7
S315800034002DFAB8B141F26870015921481DF0A4FA2D
S3158000341000240DE01F48E0641F4820651F48606552
S315800034201F48A0651F48E0651F4820661F486066E4
S31580003430204670BD1E48214628F0A2FA002816BFF5
S315800034401C48002419F00AFDF2E7000061776C66DB
S3158000345066733A206D6F756E742025732066616978
S315800034606C65640A0000000061776C6666733A20BA
S3158000347061646420766F6C756D6520257320746F2A
S3158000348020492F4F206661696C65640A0000000040
S315800034902C3C0080B13C0080E539008035330080CB
S315800034A0C53B0080653E008001350080E93B008099
S315800034B0C8430320503C008070B500F58055044613
S315800034C0D5F8680726F056FB40B10A490A48D5F870
S315800034D068271DF041FA4FF0FF3070BD20461CF082
S315800034E0F1FF040003D0014604481DF035FA20465A
S315800034F070BD0000B85F0680803900809C390080EE
S315800035002DE9F04FD64B154606460068CA1A4FF08D
S31580003510000899424446ADF5057D6FF0010737D026
S3158000352019DCD04B9942A1EB03027CD007DA12F169
S31580003530260F24D012F1090F00F0E18018E0CA4866
S31580003540081800F03381C949C84211D1B06821F00A
S315800035501DFC00F047B9032A00F0F080232A21D011
S31580003560242A4FF6FD794FF0980A23D0252A5ED07B
S315800035706FF046040DF5057D2046BDE8F08FB068F6
S3158000358025F080FF0028A8BF2860F3DA00F02AB96A
S31580003590B068D5E9002125F0F7FD686021F0F6FDD9
S315800035A00446E7E72968B06821F06EFD21F0EEFD5C
S315800035B00446DFE7D5F804B0002E08BF6FF0150487
S315800035C0307AC01E00F03F0024F052F9050000F06A
S315800035D00B8121F0E7FD6E69304620F09AF81EB324
S315800035E0288C484501D1002457E0CDF8008000237F
S315800035F0297F30466A6A1EF0D7FB050014D0296AF7
S31580003600982202A8FFF712FB0023294602AA304619
S31580003610CDF810B0CDF800A01FF0C8F82946304686
S315800036201EF07CFF39E03EE04FF0FF3435E0D5F800
S3158000363000B0002E08BF6FF01504307AC01E00F06F
S315800036403F0024F015F9050077D021F0ABFD6E69B7
S31580003650304620F05EF8002EE6D0288C4845C2D051
S31580003660CDF800800023297F30466A6A1EF09CFBD5
S315800036700500D9D0296A982202A8FFF7D7FA002335
S31580003680294602AA3046CDF808B0CDF800A01FF032
S315800036908DF8294630461EF041FF304620F03BF833
S315800036A021F086FD66E741F24C71441800F580569C
S315800036B0A1882960A1886960D6F8680725F03BFE55
S315800036C0002872DBA18890FBF1F0A860D6F8680725
S315800036D025F01CFE002868DBA288FF21444690FB6B
S315800036E0F2F0E860AA68101AC5E90408C5F81880DF
S315800036F0C5F81C80C5F82080C5E909813AE7B088FD
S3158000370010F4006F08BF6FF013043FF433AFB06856
S3158000371025F076FB002867D0018825F8081F4689A2
S31580003720FF2E7CD800F10D013246A81CFFF77EFAE9
S31580003730A819444680F802801CE755E041F274716E
S315800037406C6846180DF580783046FFF7D6FA07463E
S3158000375031464046FFF7F3FA207848B12F28C7F163
S31580003760FF0208BF641C08EB07002146FFF7AFFA8B
S315800037702C686F463046FFF7C0FA05463146384614
S31580003780FFF7DDFA207840B12F28C5F1FF0208BF88
S31580003790641C78192146FFF79AFA40A9684625F0F5
S315800037A0BDFB21F0F3FC0446E4E61BE021F0FAFCC5
S315800037B0B08810F4006F1CBFB068046806D1307AF8
S315800037C0C01E00F03F0024F053F8044664B101AAFD
S315800037D0204602A924F052F8019038B121F0E8FC85
S315800037E021F0D4FC0446C5E63C46C3E6606900F594
S315800037F08050B0F8D8062880BDF8A4006880A5F867
S315800038000880A5F80A80A5F80C80A5F80E8028986F
S3158000381028616069B0F87C00C5E90B0800E01CE00F
S31580003820C5F818800498C5F8208068610498C5F8A2
S315800038302880E86103986862029810F0800F14BFB0
S315800038404FF480404FF400406860029911F0010FF8
S315800038501CBF40F4E0706860C0E7FF2662E70000A6
S31580003860070004402E000480C0FFFB7F3E000480DA
S315800038702DE9F041002907466FF001061CBF087A42
S3158000388010F0010F1DD030A0394600F03FFA040039
S3158000389056D023F013F841F25C70204422F0DEFF0C
S315800038A030B141F2687001592A481DF055F808E098
S315800038B02948214628F064F800281CBF274819F0BB
S315800038C0CDFA394620A0FFF779FD040038D004F5FB
S315800038D08055D5F8680721F0D9FA002808BF002658
S315800038E006D01FA039461DF037F821F04FFC06465A
S315800038F0D5F8680726F03EF930B1204920A0D5F8E2
S3158000390068271DF029F808E020461CF0DBFD00281A
S3158000391016D0014621A01DF01FF82BA039461DF0B8
S315800039201BF8D5F8680726F025F90028E5D120464A
S315800039301CF0C8FD010003D018A01DF00DF8ECE7BF
S315800039403046BDE8F08100002F6C6666735F746553
S315800039506D7000002C3C0080C8430320503C0080E2
S3158000396061776C6666733A20666F726D6174202526
S3158000397073206661696C65640A000000B85F068022
S31580003980257328293A20756E6D6F756E74202573A0
S31580003990206661696C65640A0000000064656C6578
S315800039A0746520766F6C756D652066726F6D2049C3
S315800039B02F4F2073797374656D206661696C6564B9
S315800039C02025642E0A00000061776C6666733A20B3
S315800039D0646574616368202573206661696C6564BB
S315800039E00A0000002DE9FF4FD5B015460E468146E8
S315800039F04E4827F0A3FF002804BF4FF00008044676
S31580003A0000F08D800027076047600446876041F29A
S31580003A1074704844B846EB464690FFF76EF946996F
S31580003A2082465846FFF78BF93078A0B12F28CAF125
S31580003A30FF020CBF711C31460BEB0A00FFF747F9FA
S31580003A40307840B147A9684625F08AFC28B949985C
S31580003A5010F4804F01D045F4006515F4807F05F0A1
S31580003A600B01C4E9009518BF41F4807115F4806F8D
S31580003A7018BF41F4806115F4007F18BF41F40071CE
S31580003A8015F4006F27D015F4007F1CBF684622F01E
S31580003A905FFC684624F00EFE0028A0603FD1244DCE
S31580003AA0214605F11C0027F06BFF002811D021A0CC
S31580003AB019F0D4F92FA01CF04FFF05F11C00214608
S31580003AC027F05EFF28B11BA019F0C8F9002CF1D1B0
S31580003AD022E03C4620E0589A684624F0BBFD002848
S31580003AE0A0601CDA124D214605F11C0027F048FF24
S31580003AF00028EED00FA019F0B1F928A01CF02CFFF9
S31580003B0005F11C00214627F03BFF0028E1D009A0E3
S31580003B1019F0A4F9002CF0D121F038FB8046629888
S31580003B20C0F8008059B02046BDE8F08FE4430320FA
S31580003B30C843032061706F6C6C6F5C636F6D706FD0
S31580003B406E656E74735C66735C6C6666735C736F4D
S31580003B50757263655C61775F6C6666735F696F2E8D
S31580003B60633A3133363A2830203D3D2065727229DA
S31580003B700A0000006C6666735F6F70656E5F6469CD
S31580003B80723A2063616E206E6F742066726565205E
S31580003B9066696C6520646573630A00006C6666738B
S31580003BA05F6F70656E5F66696C653A2063616E20D3
S31580003BB06E6F7420667265652066696C65206465C3
S31580003BC073630A00838813F4006F1CBF6FF01400C0
S31580003BD0704710B5806825F093F80028A8BF10BDFF
S31580003BE0BDE8104021F0D2BA41F25C7110B50446AE
S31580003BF0084422F033FE38B141F2687001590BA0B7
S31580003C00BDE810401CF0A8BE1048214627F0B8FE3B
S31580003C10002808BF10BD0EA019F020F9002C08BF9F
S31580003C2010BD1BA0BDE810401CF096BE6C66667386
S31580003C30766F6C3A20756E726567697374657220EB
S31580003C402573206661696C65640A0000C843032099
S31580003C5061706F6C6C6F5C636F6D706F6E656E7428
S31580003C60735C66735C6C6666735C736F7572636532
S31580003C705C61775F6C6666735F696F2E633A31311C
S31580003C80373A2830203D3D20657272290A000000AF
S31580003C9061776C6666733A20766F6C756D652064A5
S31580003CA06574616368206661696C65640A000000FA
S31580003CB0F0B541F274720C468718CDB038466E4620
S31580003CC0FFF71BF8054639463046FFF738F8207867
S31580003CD040B12F28C5F1FF0208BF641C7019214628
S31580003CE0FEF7F5FF40A9684625F03AFB48B94298A9
S31580003CF010F4804F684602D025F02CF901E025F0BB
S31580003D00DDF821F043FA4DB0F0BD00002DE9F04119
S31580003D100D4606462D4827F011FE04004BD041F291
S31580003D208C71FEF7ABFF284626F0ECFB0028A066D8
S31580003D3046D0204622F09EFE41F29C60204422F02E
S31580003D40E1FA3046FEF7D9FF0E28054684BF314694
S31580003D501FA021D8024641F2747020443146FEF7F6
S31580003D6065FF014641F26877621941F25C73681C0F
S31580003D70204402F5805200F5805CE01839512F23EB
S31580003D8082F8743700258CF8745722F02BFD0028B2
S31580003D901CBF314617A00BD01CF0DEFD0B48214618
S31580003DA027F0EEFD002816BF1D48002419F056F8AE
S31580003DB02046BDE8F0811BA031461CF0CDFDF7E71B
S31580003DC022A029461CF0C8FDE8E70000C84303206E
S31580003DD06C666673766F6C3A20766F6C756D65204F
S31580003DE07061746820257320746F206C6F6E670A0B
S31580003DF0000000006C666673766F6C3A20726567A9
S31580003E006973746572206D6F756E74207461626CEF
S31580003E1065202573206661696C65640A0000000070
S31580003E20503C00806C666673766F6C3A20616C6C71
S31580003E306F6320766F6C756D6520666F7220257353
S31580003E40206661696C65640A000000006C666673B2
S31580003E50766F6C3A202573206E6F742066696E6467
S31580003E600A000000838813F4006F1CBF6FF01400F3
S31580003E70704710B5806825F0FBFF0028A8BF10BDED
S31580003E80BDE8104021F082B9026CD26BD269002A5B
S31580003E9004BF00207047436C19441047026CD26BF4
S31580003EA0126A002A04BF6FF02C007047436C1944D5
S31580003EB010474A68436C1A444A60026CD26B126897
S31580003EC01047036CDB6B5B6A002B04BF6FF02C0022
S31580003ED07047D0F844C061441847036CDB6B9B6A1B
S31580003EE0002B04BF6FF02C007047D0F844C06144AB
S31580003EF01847036CDB6B5B69002B04BF6FF02C00EB
S31580003F007047D0F844C061441847036CDB6B9B69EB
S31580003F10002B04BF6FF02C007047D0F844C061447A
S31580003F201847D0F840C0DCF83CC0DCF810C0BCF1C3
S31580003F30000F04BF6FF02C00704738B5049C0094C6
S31580003F40446C2144E04738BD38B5DDF810C0CDF863
S31580003F5000C0D0E910C42144DCF83CC0DCF808C0BD
S31580003F60E04738BD016CC96B4968002908BF7047B6
S31580003F700847036CDB6BDB6A002B04BF6FF02C00F9
S31580003F807047D0F844C06144184738B5DDF810C092
S31580003F90CDF800C0D0E910C42144DCF83CC0DCF880
S31580003FA00CC0E04738BD00002DE9FF4F4FF0FF3AC7
S31580003FB02DED108BB5B0469800284FF000000D907F
S31580003FC00746309006461C788346054603F1010075
S31580003FD0489004D1479800281CBF00204790002CA9
S31580003FE000F07F86BFEE00DBB7EE00EBB2EE04FB9F
S31580003FF09FEDFDCB252C08BF01250DD0459818B126
S3158000400002688168204690470D99479A481C9042DD
S315800040103CBF469A54540D904898B0EE4EABB0EEE5
S315800040204F9B10F8014B9FEDF2BBB6EE008B48908C
S3158000403000F054BE072D80F05186DFE805F00405B8
S3158000404046767FB2F600D5E72B2C16D006DC202CE0
S315800040501BD0232C21D0272C2FD003E02D2C04D04D
S31580004060302C22D0022500F039BE489846F0010651
S3158000407010F8014B489000F031BE489846F0020691
S3158000408010F8014B489000F029BE489846F0040687
S3158000409010F8014B489000F021BE489846F008067B
S315800040A010F8014B489000F019BE489846F010066B
S315800040B010F8014B489000F011BE489846F0200653
S315800040C010F8014B489000F009BEA4F13000092891
S315800040D014D8C1B2C84A6FF00040401AA2FB002033
S315800040E080085845C0F21C830BEB8B0001EB400B1C
S315800040F0489810F8014B489000F0F0BD2A2C18BF64
S31580004100032540F0EB85529850F804BB5290BBF1E2
S31580004110000FBCBF46F00106CBF1000B4898032583
S3158000412010F8014B489000F0D9BD2E2C26D1489826
S31580004130042510F8014B489000F0D0BDBAF1FF3F3E
S3158000414008BF4FF0000AA4F13000092814D8C1B284
S31580004150A94A6FF00040401AA2FB00208008504513
S31580004160C0F2DE820AEB8A0001EB400A489810F81A
S31580004170014B489000F0B2BD2A2C02D0052500F0F4
S31580004180ADBD529850F804AB5290BAF1000FB8BF4B
S315800041904FF0FF3A4898052510F8014B489000F0FB
S315800041A09DBD6C2C19D006DC4C2C23D0682C07D0F6
S315800041B06A2C25D035E0742C28D07A2C2CD030E08F
S315800041C0489810F8014B4890682C18BF022728D1D0
S315800041D010F8014B0127489023E0489810F8014BCE
S315800041E048906C2C18BF03271BD110F8014B04276D
S315800041F0489016E04898052710F8014B489010E043
S315800042004898082710F8014B48900AE048980727F5
S3158000421010F8014B489004E04898062710F8014BA7
S315800042204890062500F05ABDFFE7652C6ED01BDC52
S31580004230472C6CD00ADC252C00F05B85412C18BFFE
S31580004240452C7DD0462C7CD000F03EBD582C08BF36
S3158000425046F040064BD0612C74D0632C00F01E844F
S31580004260642C1FD000F030BD6F2C08BF08223FD0D1
S315800042700ADC662C67D0672C74D0692C12D06E2C21
S3158000428000F0088500F020BD702C00F08584732C2A
S3158000429000F01784752C08BF0A2229D0782C26D0E6
S315800042A000F012BD032F0FD2DFE807F00E020800E0
S315800042B0529810F8041B529048B209E0529830F890
S315800042C0041B529008B203E0529951F8040B5291A4
S315800042D00A21CDF808B00DAACDE90001CDE903A6E3
S315800042E0479BDDE945013FF007F800F0EDBC102261
S315800042F0032F46F0800311D2DFE807F010020A0090
S31580004300529810F8041B5290C8B20BE032E020E0BD
S31580004310529830F8041B529088B203E0529951F8B3
S31580004320040B5291CDE90002CDF808B00DAACDE973
S3158000433003A3479BDDE945013EF0DEFF00F0C4BCE8
S3158000434002E00BE00CE017E0452C08BF46F400764F
S315800043500DD0472C08BF46F4807608D046F040063C
S31580004360652C07D0672C08BF46F4807604E046F0BB
S31580004370400601E046F400765298DDF81C810DAACD
S31580004380C01D20F0070000F10801529190ED005BFE
S31580004390DDE945494FF00000CDF818A00F96BAF137
S315800043A0FF3FCDE90A0B014683468246074684468F
S315800043B03290339006F0200006F40073319004BFEB
S315800043C006200690B5EEC05BF1EE10FA3CBF2D20BC
S315800043D00A9005D316F0020F18BF2B203AD00A9008
S315800043E0B4EE455B0AE000000000E0FFFFFFEF410E
S315800043F09A9999999999B93F67666666F1EE10FA26
S315800044002ED016F0400F0CBFFCA0FDA0F0B30A9989
S3158000441000291CBF8DF840104FF0010C017800294F
S3158000442018BF10A908D0037801F80C3010F8013FA6
S315800044300CF1010C002BF6D10B9910AB0F98CDE93E
S315800044400031CDE902C04346494620463FF0C6F8D2
S3158000445000F03ABC16F0040F18BF2020BFD1BFE78A
S31580004460B0EE4D0BB4EEC05BF1EE10FA04D3B4EEB1
S31580004470CA5BF1EE10FA0EDD35EE050BB4EE450B98
S31580004480F1EE10FA07D116F0400F00E003E014BFFA
S31580004490DCA0DDA0BAE716F4407F7CD016F4807FDE
S315800044A00DD00698002804BF0120069016F0080F4C
S315800044B00698A0F10100069004BF01203390B5EE66
S315800044C0C05B4FF00001F1EE10FAB1EE456BB0EE35
S315800044D04A1BB0EE492B25FE060B00BFB4EEC10B7E
S315800044E0F1EE10FA12D2B5EEC00BF1EE10FAC2BFA1
S315800044F0491E11F59A7F20EE020BEFDC06E000BF25
S31580004500B0EE421B80EE013BB0EE430BB4EEC02B07
S31580004510F1EE10FA03D8491CB1F59A7FF0DD0698C2
S315800045204FF00103092800F3178400BFB5EEC05B86
S31580004530F1EE10FA25FE063B0A1EB0EE4A0B10DDA0
S3158000454011F0010F18BFB0EE490B481018BFB0EE3E
S31580004550491B05D020EE010B401E20EE010BF9D140
S31580004560521A002A12DA504200280FDD12F0010F8B
S3158000457018BF20EE0B0B401018BFB0EE4B1B05D0BA
S3158000458020EE010B401E20EE010BF9D1B0EE431B4D
S3158000459081EE003B00E0B2E0B1EE456BB0EE4C4BF5
S315800045A04FF0FF35B4EEC43BF1EE10FA7DDAB0EE93
S315800045B0430BB0EE431BBCEEC00B10EE100A00EEB0
S315800045C0100AB8EE400BB4EEC10BF1EE10FA88BFBC
S315800045D0401EB0F1FF3F68D0DDF818C0B0EE4A0B40
S315800045E0BCF1000F12DD1CF0010F18BFB0EE490BB5
S315800045F05FEA6C0218BFB0EE491B05D020EE010BB6
S31580004600521E20EE010BF9D1ACEB0C0CBCF1000F65
S3158000461015DACCF10002002A11DD1CF0010F1CBF57
S31580004620B0EE4B1B20EE010B521018BFB0EE4B2B99
S3158000463005D020EE020B521E20EE020BF9D1BCEE05
S31580004640C01B00EE100AB8EE400B33EE400B11EEA5
S3158000465010CA01EE10CAB8EE411B20EE010BB0EE77
S31580004660441BB4EEC10BF1EE10FAA8BF2A4611DA4C
S31580004670B0EE401BB0EE402BBCEEC11B11EE102AF3
S3158000468001EE102AB8EE411BB4EEC21BF1EE10FA11
S3158000469088BF521E01EE102AB0EE482BB8EE411BA1
S315800046A030EE410BB4EEC20B00E039E0F1EE10FAC9
S315800046B042F100022992624508D3401C4FF0000265
S315800046C029921BB10A2804BF0120491C16F4807F59
S315800046D02AD0EBB3069A521C914226DA11F1040FC6
S315800046E027DB06980023401A0690092800F33183B9
S315800046F0B5EEC05BF1EE10FA25FE063B52E7069852
S31580004700092800F3238300BFB5EEC05BF1EE10FAF3
S31580004710B1EE456B25FE063B002B7FF40DAF39E7E6
S315800047200120309000F0DDBA93B10029A8BF2B227A
S3158000473001DA49422D22354D0A234FF0030E1BAE76
S315800047402B9200228C46B1FBF3FAB1FBF3F100E029
S315800047501EE003FB1ACC002915F80CC006F802C02F
S3158000476002F1010218BF7245ECD3012A03D1302130
S315800047708DF86D1002220F992B9B11F0400FB354C8
S3158000478002F1010214BF45236523B35402F1010AE5
S315800047901E4B0A214FF02B0E00250DF1400C0246D0
S315800047A0B0FBF1F6B0FBF1F001FB162200289A5C13
S315800047B00CF8052005F1010518BF7545EFD329983A
S315800047C0B0B1124B0A2100274FF02B0E0DF1740C5D
S315800047D00246B0FBF1F6B0FBF1F001FB1622002891
S315800047E09A5C0CF8072007F1010718BF7745EFD3CD
S315800047F00698C01B01903398002809E06E616E0010
S315800048004E414E00494E4600696E6600C4350480AE
S3158000481008BF069814D0002FCFBF1DA80020DDF852
S3158000482018B0019008DD5F4506DD10F80B103029C1
S3158000483008BF0BF1010BF6D00698A0EB0B00069093
S315800048400028DCBF0F9810F0080F1CBF01203290A3
S31580004850319880B1FE4880FB0521A1EBE171A1EB87
S315800048608101E9420CBF01220022A91A80FB0110B6
S31580004870A0EBE07031900B98411B3298A1EB0A01B6
S3158000488000280698A1EB00013198A1EB000214BF25
S31580004890012100210A98A2EB0101002814BF012002
S315800048A000200E1A00F15C820F9810F0010F18BFDD
S315800048B076422AD10F9810F0100F26D0002E38DDC0
S315800048C00A9878B114B12268A16890470D98411C66
S315800048D041453CBF0A9909F8001000200D990A90BD
S315800048E0481C0D901CB122683020A16890470D9815
S315800048F0411C41453CBF302109F800100D98761EB9
S31580004900401C0D90002EEDDC13E0002E11DD1CB155
S3158000491022682020A16890470D98411C41453CBFE4
S31580004920202109F800100D98761E401C0D90002E4F
S31580004930EDDC0A9868B114B12268A16890470D9899
S31580004940411C41453CBF0A9909F800100D98401C4E
S315800049500D90002D31DD6D1E24B110A82268A1684E
S31580004960405D90470D98411C414503D210A9495D91
S3158000497009F800100D98401C0D90319800281ADD1A
S31580004980002D1ADDB24880FB0510A0EBE070A0EB8D
S315800049908000E842DFD11CB122682C20A1689047B4
S315800049A00D98421C42453CBF2C2109F800100D98F9
S315800049B0401C0D90CFE7002DCDDC329870B11CB134
S315800049C022682E20A16890470D98411C41453CBF26
S315800049D02E2109F800100D98401C0D900198002892
S315800049E0C8BF302512DD1CB122683020A1689047EF
S315800049F00D98411C414538BF09F8005001980D9922
S31580004A00401E0190491C0D910028ECDC5F45C8BF13
S31580004A101DAD12DD7F1E1CB12268E85DA16890473E
S31580004A200D98411C41453CBFE95D09F800100D9881
S31580004A305F4500F101000D90ECDCBAF1000FC8BFB4
S31580004A401BAD16DDAAF1010A24B1226815F80A0009
S31580004A50A16890470D98411C41453CBF15F80A1046
S31580004A6009F800100D98BAF1000F00F101000D90C1
S31580004A70E8DC002EB8BF202574DA1CB1226820201D
S31580004A80A16890470D99481C404538BF09F80150E8
S31580004A900D98401C0D90761CEFD415E152984599DF
S31580004AA010F8042B5290D4B221B108468968026866
S31580004AB0204690470D99479A481C90427ED30D9088
S31580004AC002E15298BAF1FF3FDDF81C813146564625
S31580004AD050F8047B5290DDE9455914BF4FF0000A27
S31580004AE04FF0010A002F08BF5AA7002000E0401CA3
S31580004AF03A5C22B1BAF1000FF9D1B042F7DBBBEBD9
S31580004B00000448BF002411F0010F18BF6442002C36
S31580004B10C8BF4FF0200B10DD1DB12A682020A96880
S31580004B2090470D98411C414538BF09F800B00D9853
S31580004B30641E401C0D90002CEEDC3878B8B1BAF1BA
S31580004B40000F10D015B12A68A96890470D98411CAE
S31580004B5041453CBF397809F800100D98401C0D90EE
S31580004B607F1CEAE77EE0311EA6F10106EADC002C16
S31580004B70B8BF202676DA1DB12A682020A96890471A
S31580004B800D98411C414538BF09F800600D98401CBE
S31580004B900D90641CEFD497E0529850F8041B529005
S31580004BA089B146F08800CDF808B01022CDE903A07F
S31580004BB0CDE90012DDE945010DAA00E0A5E0479B9D
S31580004BC03EF09AFB80E0DDF81C810020DDE9455946
S31580004BD022A74FF0FF314FF0010A00E0401C3A5CFB
S31580004BE022B1BAF1000FF9D18842F7DBBBEB0004A2
S31580004BF048BF002416F0010F18BF6442002CC8BFBE
S31580004C00202610DD1DB12A682020A96890470D98BE
S31580004C10411C414538BF09F800600D98641E401C50
S31580004C200D90002CEEDC3878002818BFBAF1000F02
S31580004C301BD015B12A68A96890470D98411C41453B
S31580004C403CBF397809F800100D98401C7F1C0AE09B
S31580004C5056555555286E756C6C290000286E696C02
S31580004C602900000030E00D90DDE7002CB8BF20263B
S31580004C702ADA1DB12A682020A96890470D98411C20
S31580004C80414538BF09F800600D98401C0D90641CA2
S31580004C90EFD419E0032F11D2DFE807F010020900E4
S31580004CA052980D9A50F8041B52900A700CE0529854
S31580004CB00D9A50F8041B52900A8005E0529850F8DD
S31580004CC0041B52900D98086000264898B3463546D6
S31580004CD05F464FF0FF3A10F8014B4890002C7FF466
S31580004CE0A9A947990D98884212D2469900220A545A
S31580004CF015E0459818B102688168204690470D995D
S31580004D00479A481C9042BFF4DAAE469A5454D6E687
S31580004D1029B1DDE946120A44002102F8011C3099C6
S31580004D2041B9B0F1004F3FBF35B0BDEC108B04B038
S31580004D30BDE8F08F04F0A1FD7021016035B04FF021
S31580004D40FF30BDEC108B04B0BDE8F08F09200690D3
S31580004D50DAE409200690CBE409200690FFF7E6BB4B
S31580004D600026A1E52DE9F84F051F50F8040C002414
S31580004D700E4690F8300000281CBF6FF01200BDE888
S31580004D80F88F002E73D000BFD6F80490D5F8842013
S31580004D90914505D36FF01B01B068C6E9040184E034
S31580004DA0B168A2EB0907D5F88800B1FBF0F297420B
S31580004DB028BFB1FBF0F74049D6F80CB00968B1FBC3
S31580004DC0F0FA0097002F62D0286890F8301011B161
S31580004DD06FF012045BE0BA4534BFD046B8464068EF
S31580004DE042F210712CF08CFE040050D1307E10F00F
S31580004DF0010F1CD0286849464069D0F808C0BCF12C
S31580004E00000F35D0D5F8B43028464246E047002812
S31580004E100BDBD5F8882002FB08F2824224D1D5F834
S31580004E20B4105846FDF702FF25E004462FE0D5F87A
S31580004E308800594600FB08F2D5F8B400FDF7F6FE67
S31580004E40286849464069826892B1D0F80CC04246CB
S31580004E50D5F8B4302846E0470028E6DBD5F8882028
S31580004E6002FB08F1814206D06FF00400DDE720E006
S31580004E706FF02200D9E7286840682CF049FED5F803
S31580004E808800B7EB0807C14408FB00BB9CD174615E
S31580004E900098D5F88810381AB26800FB0120306176
S31580004EA0316A00291CBF30468847766A002E7FF417
S31580004EB06BAF0020BDE8F88F1C1701202DE9F84361
S31580004EC0A0F10C050C46603041F2883144F00EFCAE
S31580004ED0060018BFBDE8F88395F8680000283AD127
S31580004EE02868002837D0002C18BF6FF01B082BD0FD
S31580004EF0D5F88C0061688269914224BFA068C4E9B4
S31580004F00040819D2B0F816C0501AA368B3FBFCF790
S31580004F10B84298BF07464FB1207E3B4600F001005D
S31580004F200090E26828462FF0BBFD06466661002E9B
S31580004F3018BFA06817D02061216A00291CBF2046AF
S31580004F408847646A002CD3D105F16C0044F064FC78
S31580004F500020BDE8F88305F16C0044F05DFC6FF03D
S31580004F601200BDE8F883D5F88C10A068C98A07FBC3
S31580004F701100E0E710B58A686FF022030846096AD7
S31580004F800029C0E9042318BF88476FF0220010BDAE
S31580004F906FF02200704770472DE9F04784B088464D
S31580004FA00021814668462BF0A1FD1B4C0025E06858
S31580004FB00028DCBF04B0BDE8F08768462BF09FFD73
S31580004FC0A068C5EBC50650F8267000EB8600D0F8C1
S31580004FD004A0BFB18169491C816168462BF07BFDC5
S31580004FE0524641464846B84768462BF088FDA06839
S31580004FF000EB86029069401E906104BF02F10800B2
S3158000500049F0C0FC68462BF066FDE0686D1C854261
S31580005010D3DB04B0BDE8F087BC1701202DE9F04151
S31580005020041F50F8040C0F46154690F830100029DE
S315800050301CBF6FF01200BDE8F081406842F210712B
S315800050402CF05EFD060018BFBDE8F0816FF03D4094
S31580005050384409281AD2DFE800F01B1919051B1BF2
S315800050600B12150004F160012846FDF768FE0FE07B
S3158000507094F88C00002814BF0320022004E0D4F8A2
S31580005080880001E0D4F88400286001E06FF02206F1
S31580005090206840682CF03CFD3046BDE8F081000079
S315800050A02DE9F843A0F10C0450F80C0C16468846FE
S315800050B041F28831806900680069C76804F16C0034
S315800050C044F014FB050018BFBDE8F88394F8680027
S315800050D068B9206858B16FF03D41414409293AD2F8
S315800050E0DFE801F03B39390D133B2D2F340004F1F5
S315800050F06C0044F091FB6FF01200BDE8F88300F17C
S3158000510094013046FDF71BFE27E0D4F88C106A46E2
S315800051108069496828F0F7FD05001ED1787840B18E
S315800051200098C0F34320042817D000BF6FF0040511
S3158000513013E0009847F618610842F7D10DE0022087
S3158000514002E0D4F88C00C08A306006E0D4F88C0087
S315800051508069306001E06FF0220504F16C0044F054
S315800051605BFB2846BDE8F8832DE9F04184B00F4605
S315800051708046FDF7C2FD2028054639DA1E484FF0E5
S31580005180FF3144F0B3FA1D48061D4468B4420DD081
S315800051902046FDF7B2FDA84205D12A464146204663
S315800051A0FDF7D6FD10B1E46BB442F1D1BFB1B44284
S315800051B04FF0000512D0002168462BF097FC684618
S315800051C02BF09DFCA06C30B1401CA06468462BF08F
S315800051D082FC3C6003E068462BF07DFC3D6006481F
S315800051E044F01AFBB4421EBF012004B0BDE8F08132
S315800051F0002004B0BDE8F08108460320BC170120DA
S3158000520010B550F8040C84B0002100F120046846E3
S315800052102BF06CFC68462BF072FC206810B1401EA7
S31580005220206004D068462BF056FC04B010BD68465A
S315800052302BF051FC204602F00DFF04B010BD10B5D6
S31580005240A0F14804283844F0C7FAA16D2046BDE88D
S315800052501040084710B584B000F17C0468460021F0
S315800052602BF044FC68462BF04AFC206810B1401EA7
S31580005270206004D068462BF02EFC04B010BD684632
S315800052802BF029FC20460EF045FC04B010BD000032
S315800052902DE9F047524E012982B08046A6F10405D9
S315800052A04FF0000014D002291CBF02B0BDE8F08781
S315800052B02C68CDE90080FDF7B7F94A4F002C81466E
S315800052C0E8464BD041462046B847002846D142E0C2
S315800052D06C68CDE90080FDF7A7F9424F8246E94622
S315800052E034B149462046B84710B92468002CF8D115
S315800052F05046FDF79DF9019C002C04BF02B0BDE825
S31580005300F087606C41468268201D90470028A06423
S3158000531004BF02B0BDE8F087FDF786F93268A24285
S3158000532013BF116821683160002908D08C4202D1F0
S315800053300968116003E00A4609680029F6D1FDF77D
S3158000534077F9FDF771F9296821602C6002B0BDE814
S31580005350F047FDF76DB92468002CB3D14846FDF7B8
S3158000536067F9019C002C04BF02B0BDE8F087606C31
S31580005370C168002904BF02B0BDE8F087A06C8847E9
S3158000538000281CBF02B0BDE8F087FDF74DF92A68FA
S31580005390A24213BF116821682960002908D08C4277
S315800053A002D10968116003E00A4609680029F6D12E
S315800053B0FDF73EF9E06C10F4803F09D0FDF734F933
S315800053C031682160346002B0BDE8F047FDF730B93E
S315800053D002B021460448BDE8F04726F0D1BA000065
S315800053E0B8170120A5070180EC4503202DE9F04F71
S315800053F08DB090F84C31D0F8A8200546D0F89400AE
S31580005400894601210390002B4FF00A00059001FA8E
S3158000541002F01FFA80F818BF002D09D0D5E93201B5
S31580005420FDF702FA0022B9EB000072EB010004D30B
S315800054300DB06FF01500BDE8F08F03982FF0FEF9E0
S31580005440D5F8501103982FF030FA040078D109F07E
S31580005450FF074FF0600AC9F307264FF0D00BC9F358
S31580005460074900BF01238DF8003004A98DF810A0EC
S315800054708DF80130CDE90113039869462FF002FAC1
S31580005480040071D18DF81070B8F5007F8DF8116029
S3158000549008D9D5E932010022D0F1006072EB010013
S315800054A008D30BE0D5E932200021D2F1007271EBEE
S315800054B0000003D203208DF8129000E00220022320
S315800054C08DF8003001228DF8012004A9CDE9011064
S315800054D0039869462FF0D6F9040045D101208DF84E
S315800054E0000004A98DF810B08DF80100CDE90110F7
S315800054F0039869462FF0C6F9040035D103982FF03A
S3158000550095F9002808BF42F20F7407D101E0641EA6
S3158000551017D003982FF08AF90028F8D001238DF848
S31580005520003070208DF8100004A98DF80130CDE987
S315800055300113039869462FF0A5F9040014D103E0FE
S3158000554015E06FF04E040FE0012303208DF8000074
S3158000555000228DF8012004A9CDE90113039869463C
S315800055602FF090F9040009D003982FF093F903984F
S315800055702FF0A6F90DB02046BDE8F08F9DF81000FB
S3158000558010F0010FF3D00598411EC8B20590BFF404
S3158000559069AF4FF0FF34EAE730B583B004460020A8
S315800055A08DF8080094F84C21C4F8F400002A04BF52
S315800055B06FF01502C4F8F4200122CDE9002094F89A
S315800055C0A80094F8B83002FA00F0C218204602AB60
S315800055D000F046F8C4F8F40010B103B0284630BD98
S315800055E09DF80800FF2814BF01250025F5E74DF832
S315800055F004ED83B000228DF8082090F84C31002B02
S3158000560002BF6FF0150003B05DF804FB0123CDE9FE
S31580005610003290F8A82090F8B8C003FA02F26244EB
S3158000562002AB00F043F903B05DF804FB08B5074808
S31580005630006800900122694605A01AF069FA18B937
S3158000564009210B201AF03AFA08BD0000D4380680EA
S315800056506932635F746F7563685F6770696F7300C3
S315800056602DE9FF4F054690F8A80089B04FF0010B51
S3158000567016460F4695F84C11DDE9168A0BFA00F2AC
S31580005680D5F894001FFA82F90029049002BF6FF0C2
S3158000569015000DB0BDE8F08F2FF0D0F80498D5F83E
S315800056A050112FF002F9040040F0DE80B9F5007F3A
S315800056B002D8B6F5807F11D28DF81400012205A894
S315800056C08DF8042001A98DF80520CDE90202049801
S315800056D02FF0D8F8040040F0C48008E0B6F5007FCB
S315800056E032BF8DF814B050208DF81400E6E7B9F576
S315800056F0007F4FF0010005AA8DF8146005D94FEAA6
S3158000570016214FF002008DF8151000F101014FEAC5
S315800057101723175400F10200535409D9D5E93241B1
S315800057204FF0000CD4F100637CEB01010CD207E052
S31580005730D5E932410023D4F1007C73EB010103D219
S315800057403B0C411C13540846114602238DF8043045
S3158000575001228DF80520CDE90210049801A92FF0C9
S3158000576091F804007DD1B9F5007F11D901218DF81A
S3158000577004100A468DF8051030208DF8140005A80F
S31580005780CDE90202049801A92FF07CF8040068D1C3
S3158000579004982FF04BF8002808BF42F20F7407D107
S315800057A001E0641E2FD004982FF040F80028F8D02E
S315800057B00C980321CDE902088DF804100022049884
S315800057C001A98DF805202FF05DF804462A48B6F524
S315800057D0006F007800F0020018D260B327A140F273
S315800057E0557228A01BF0B8F829A01BF0B5F82BA09D
S315800057F01BF0B2F80C9933463A462846CDF800801D
S3158000580001F09AF917E06FF04E042AE098B11BA1D7
S3158000581040F25A721BA01BF09FF821A01BF09CF847
S315800058201EA01BF099F80C9933463A462846CDF8C7
S31580005830008001F081F9A4B9BAF1000F14D095F86F
S31580005840FC300322D5F8F80000218DF804208DF86D
S31580005850051001A9CDE9020304982FF013F804007E
S3158000586002D004982FF016F804982FF029F80DB07E
S315800058702046BDE8F08F0000481B01204E414E4473
S31580005880000000002573282564293A2000000000C6
S31580005890726561642070616765203A000A000000C5
S315800058A072656164206F6F62203A00002DE9FF4FB8
S315800058B005004FF0010691B04FF00A00174695F8A3
S315800058C0A8100990D5F8940006FA01F11FFA81F81C
S315800058D0069019BF95F84C0100286FF0150015B099
S315800058E008BFBDE8F08F06982EF0A8FFD5F85011B6
S315800058F006982EF0DAFF040040F01281C7F30720E5
S315800059000E90129807F0FF0B04AE00F0FF0AC0F36A
S315800059100729C0F307400B90B8F5007F4FF00000D1
S3158000592006D8B7F5807F16D200218DF81010012099
S315800059308022411C325401238DF8043004A88DF84E
S315800059400530CDE90201069801A92EF09BFF0400DF
S3158000595040F0E38008E0B7F5007F34BF0121502195
S3158000596001208DF81010E3E7B8F5007F4FF00100B5
S315800059708DF810B004D90E988DF811004FF0020002
S3158000598000F1010106F800A000F1020006F801907E
S3158000599009D9D5E932314FF00002D3F1006372EBB9
S315800059A001010CD207E0D5E9323C0021D3F1007227
S315800059B071EB0C0103D20B9A411C32540846022328
S315800059C08DF8043004AA01218DF80510CDE9022056
S315800059D0069801A92EF056FF040071D11E99042362
S315800059E0149800228DF804308DF80520CDE9020147
S315800059F0069801A92EF046FF04465448B7F5006F75
S31580005A00007800F0020016D2002829D050A140F27A
S31580005A10996251A01AF0A0FF52A01AF09DFF55A0DE
S31580005A201AF09AFF1E983B4600902846129A1499BF
S31580005A3001F082F814E098B145A140F29E6246A03A
S31580005A401AF08AFF4CA01AF087FF4AA01AF084FF4A
S31580005A501E983B4600902846129A149901F06CF8DD
S31580005A60002C5AD11F9888B195F8FC100423D5F8DC
S31580005A70F80000228DF804308DF80520CDE902016A
S31580005A80069801A92EF0FEFE040046D101238DF86A
S31580005A90043010208DF8100004A88DF80530CDE96B
S31580005AA00203069801A92EF0EDFE040035D1069872
S31580005AB02EF0BCFE002808BF42F20F7408D102E027
S31580005AC02BE0641E16D006982EF0B0FE0028F8D083
S31580005AD001238DF8043004A98DF8053070208DF8E7
S31580005AE01000CDE90213069801A92EF0CBFE040022
S31580005AF013D102E06FF04E040FE0012303218DF8ED
S31580005B00041000208DF8050004AA0698CDE902232A
S31580005B1001A92EF0B7FE040009D006982EF0BAFE31
S31580005B2006982EF0CDFE15B02046BDE8F08F9DF884
S31580005B30100010F0010FF3D00998411EC8B20990E9
S31580005B40BFF4EAAE4FF0FF34EAE70000481B0120BD
S31580005B504E414E44000000002573282564293A20D2
S31580005B600000000077726974652070616765203A6D
S31580005B70000000000A0000007772697465206F6F6C
S31580005B8062203A0002464FF0FF30064B196804E067
S31580005B90914201D1002002E009680029F8D100BFB6
S31580005BA070470000F817012000E000680268002AAC
S31580005BB0FBD101600A6070472DE9F04FD0F8249040
S31580005BC000298FB006464FF000074FF0FF387DD092
S31580005BD0D6F80C00BC466446A0F10805B54221D033
S31580005BE02869A8421AD0002C08BF2C4615D06B69AC
S31580005BF022462046D2F814A0534507D290421CBFB5
S31580005C0005612A6109D12C462A6106E0104612698F
S31580005C10002AEFD10561C5F810C0491E002918BFBA
S31580005C20E868D9D1002C18BFA24674D0726948465C
S31580005C30DAF81810FCF7FAFF7069B8F1FF3F07F140
S31580005C400107814408BFDAF81480DAF8105045B1AC
S31580005C50DAF814006969401C884202D1306AB84279
S31580005C6056D8306A4FF0030BB84202D26FF015094E
S31580005C7035E00DF1280A0021504648F05BFF0021EF
S31580005C800AA848F0B7FE31680020CDE9001871698E
S31580005C9001FB07F10291716ACDE903102049CDE934
S31580005CA0060ACDE90810059069463068426D90472E
S31580005CB081464FF0FF310AA848F09CFEB9F1000FEB
S31580005CC011D000BF19F1130F06D000E023E0BBF11D
S31580005CD0010000F0FF0BD2D20AA848F0A3FF0FB054
S31580005CE04846BDE8F08F0598002818BF8146E9D15F
S31580005CF00AA848F097FFD6F82490AC424FF00007E8
S31580005D004FF0FF3804D020462469AC420061FAD1B6
S31580005D105FEA050A8AD10FB00020BDE8F08F000047
S31580005D200DCC008030B501281546C1B01EBF6FF07E
S31580005D30150041B030BD086819F08AFA04000CD10C
S31580005D40FF21684619F06AFE38B16946284628F070
S31580005D50BAFE0A21284628F0AFFE41B0204630BD63
S31580005D602DE9F74F92B00C4607460CA80C900021FF
S31580005D700D90E16014980490A16014984088079073
S31580005D80A8B1049807990078884210D80499497870
S31580005D90042918BF00900FD0079900980A1A009915
S31580005DA00498084404901004000C0790E9D10C98DC
S31580005DB004230CAD00F0ADBADDF81C800928049EE2
S31580005DC00DF1300B0ED33079002818BF0C9D09D009
S31580005DD05D4510D0A968B0788978884218BF2D684B
S31580005DE0F6D112E0FE481AF0B7FDFEA01AF0B4FD17
S31580005DF0367800F096B910202BF034FD050013D0CC
S31580005E000020A8602D60E8606D601097CDF838801E
S31580005E104FF000080196A86858B1C07808B1F078AC
S31580005E2038B1367800F073B96FF00B06009600F043
S31580005E3085B93079202828BF2020307140012BF089
S31580005E4011FD5FEA000908BF6FF00B0600F05F8165
S31580005E500021C9F8001001980E9A0078B2EB000A6A
S31580005E60019A00EB020600F02B81307850450BDC5E
S31580005E707178042908D0052918BF069016D000BF6E
S31580005E80BAEB000A0644F0D1B8F1000F00F0188191
S31580005E90019880F804800198A860E868002818BFF7
S31580005EA02BF0EAFCC5F80C9000F02EB9019909791F
S31580005EB0884506D3CA481AF04FFDD1A01AF04CFD8A
S31580005EC0E2E71099072809EB4812069207D2C448E0
S31580005ED01AF042FDD0A01AF03FFD307835E0B07858
S31580005EE000F00F0010283ADAC0B311604FF0000EB0
S31580005EF006984660069981F808E00698006890F84A
S31580005F003510069803294068808818BFC0F30A00B8
S31580005F102DD0012933D0022965D0032918BF4FF02F
S31580005F20FF307DD000F2E7324FF47A7192FBF1F2C6
S31580005F300699C1F81CE00698C2602BF0EFFD069921
S31580005F400028886118BF30786BD00028069069DBFE
S31580005F5008F1010000F0FF08069891E7FFE7A048E6
S31580005F601AF0FAFCB3A01AF0F7FC3078EDE7C0F32C
S31580005F70C122C0F30A03501C10FB03F0C9E706993F
S31580005F804968897811F0800F15D0C0EBC001B04800
S31580005F90B04B1F22C90080FB01104FF47A71A0EB31
S31580005FA0E07000EB800002EB400000FB03F090FB0A
S31580005FB0F1F0BE3014E0C0EBC000A54AA64B1F210D
S31580005FC0C00082FB00204FF47A72A0EBE07000EBF9
S31580005FD0800001EB400000FB03F090FBF2F0ED3017
S31580005FE000F580309EE70699C0EBC0004968CA7804
S31580005FF002F00302012A1AD09549C2001F2042F2FC
S31580006000A20C81FB02134FF47A7242F27B71A3EBEE
S31580006010E37303EB830300EB430000FB0CF002E029
S3158000602025E04AE055E090FBF2F008447AE7884A9A
S31580006030C3001F2091F802C04FF47A7182FB0332AD
S3158000604042F2A2031CF0800FA2EBE27202EB820204
S3158000605000EB420000FB03F090FBF1F014BF41F629
S31580006060644141F67901084400F57A705AE7069949
S3158000607040F623034968C97801F003010129C0EB82
S31580006080C00173484FEAC10180FB01020AD0A2EB2E
S31580006090E27272484FF47A7102FB0300B0FBF1F0B2
S315800060A0401D3FE7A2EBE2726D484FF47A7102FB26
S315800060B00300B0FBF1F0401D34E76FF00B0007E002
S315800060C047481AF049FC67A01AF046FC6FF00800B2
S315800060D00690B9F1000F10D0B8F1000F4FF000060E
S315800060E008DD00BF09EB461080692BF02DFD761C7C
S315800060F0B045F7DC48462BF0BFFB39481AF02CFC3C
S3158000610006995FA01AF028FC0E98A0EB0A06A868EC
S3158000611068B12868A84204D10D980D95C5E900B0EC
S315800061200560002E009606D0BFF636AE06E02846FD
S315800061302BF0A2FBF5E76FF0080000900CA808F0A2
S315800061400FFCA068F0B3E16800200690002945DDC9
S3158000615000274FF004094FF0180A00BF00EB4002F9
S31580006160A36802EBC0004C2101EBC00003EB000BDF
S31580006170DBF800505D45D5F8008030D0D5E90001C8
S315800061800026416008602F606F60A868007900284B
S3158000619020DD00BFE86809EB461200EB4611805807
S315800061A00968807810F0800F00F00F0001EB800006
S315800061B014BFC0F88C70C0F8CC700AEB4611E86842
S315800061C0405800E07FE02BF0BFFCA868761C007981
S315800061D0B042DFDCE8682BF04FFB61E070E068E0FE
S315800061E0E856038062616420696E746572666163D5
S315800061F0652064657363726970746F722E0A00001D
S31580006200746F6F206D616E7920656E64706F696ED4
S3158000621074732E0A00000000696E76616C696420D2
S31580006220656E64706F696E74206C656E6774682EB7
S315800062300A000000696E76616C696420656E647020
S315800062406F696E7420616464726573732E0A0000D0
S31580006250ABAAAA2A530801008C04010091140E00EF
S31580006260F9C109006E6F20456E64506F696E7420A7
S3158000627064657363726970746F722E0A0000000021
S3158000628062616420696E74657266616365206465A7
S315800062907363726970746F722025642E0A00000021
S315800062A028462BF0E9FAD8454546D8F800807FF491
S315800062B065AF0698E168401C069081423FF74EAF75
S315800062C0A0682BF0D9FA009815B0BDE8F08F8168E8
S315800062D00A79002A18BF002117D000BFD0F80CC059
S315800062E003EB41165CF806600CEB411CB67816F0A1
S315800062F0800F06F00F0607EB860614BFC6F88CC023
S31580006300C6F8CCC0491C521EE8D1E168491CE16040
S315800063100068A842DBD1E168582001FB00F63046D0
S315800063202BF0A0FA0028A06008BF6FF00B003FF4A6
S3158000633004AF3146FCF7A2FC207B4FF00008D4F86E
S3158000634008B000F0FF0A3868BAF1000F0069D0F88B
S315800063500C902DDD08EB480000EBC8000BEBC00667
S3158000636006F14C0006F11801F064B76330653868B1
S315800063708068316176A1706006F12800CDF80080D2
S3158000638097F8343099F80020FCF746FF06F128008C
S31580006390B06197F83420182132770020717708F1A0
S315800063A0010899F80010C245B177C6E90860D1DCCA
S315800063B0149800230246B0F802B0BBF1000F18BF54
S315800063C04FF0000C62D0107858455FD8E06898424C
S315800063D05CDD50780B2850D103EB4306A76806EBAB
S315800063E0C3069178442000EBC608462000EBC60918
S315800063F007F80810A7684720117907F80910A768D9
S3158000640000EBC6095079482107F80900A76801EB17
S31580006410C6099179452007F80910A16800EBC609DD
S31580006420D07801F809000C99A94208681CBF4C274E
S3158000643007EBC60A20D000BFD4F808E08E681EF8A5
S315800064400870B678B74213D81EF809E07744BE4282
S315800064500ED2D1E9006777603E60C1F800C0C1F80E
S3158000646004C0A668564477687160C1E900673960E0
S3158000647001460068A942DFD15B1C1078ABEB0001B6
S315800064801FFA81FBBBF1000F02449CD10C98A842F5
S31580006490026858D045274FF04C080026E16899429B
S315800064A051DD03EB4301D0F808C001EBC301A568B9
S315800064B04FF0440909EBC10B9CF802A04FF0460C43
S315800064C00CEBC1094FF0470C05F80BA085680CEB67
S315800064D0C10CD4F808E04FF0480A0AEBC10A07EB72
S315800064E0C10B6D7908EBC1010EF80950D0F8089000
S315800064F00125D4F808E05B1C99F806900EF80C90FC
S31580006500D0F808C0D4F808909CF807C009F80AC0EB
S31580006510D4F808C00CF80B50D0E9005CC5F804C06C
S31580006520CCF8005006604660D4F808C06144D1F8C3
S3158000653004C04860C0E9001C0CA9CCF800008A425F
S3158000654010461268AAD1E36015B00020BDE8F08F2E
S31580006550757362253033645F253033645F2530334D
S315800065606400000010B504464FF00000002C04BF04
S31580006570002010BD61680029DCBF6FF0080010BDE7
S31580006580491E61600CD1A16800291CBF8968002959
S3158000659006D02046884718B16168491C616010BDE5
S315800065A0E168002918BF0C46DED110BD70B50446DF
S315800065B0C068002518B1FFF7F9FF05000BD16068A8
S315800065C0401C6060012806D1A06800281FBF416872
S315800065D0002920468847284670BD0000002807DB32
S315800065E004494A689042BEBF096851F82000704746
S315800065F00020704728190120194930B4D1F804C009
S31580006600BCF1000FCCBF0CF0010100210022144B1D
S315800066104C1E1B680AD400BF53F82250854202D113
S3158000662030BC10B27047521CA242F5DD614512DAC9
S3158000663053F82120824202D130BC08B2704703EB66
S3158000664081025268824203D1481C30BC00B2704736
S31580006650891C6145ECDB30BC4FF0FF307047000091
S3158000666028190120002808BF704710B50446C06865
S31580006670FFF7F8FF0146A0688269002A04BF084632
S3158000668010BD2046BDE810401047000010B50446F6
S31580006690FBF7CAFF236AA169094A1944A16191429D
S315800066A005D3084B62691944521CC4E90521FBF7DE
S315800066B0BFFFE1692046BDE8104047F0F9BF000002
S315800066C000CA9A3B003665C401494BF034BB0000D2
S315800066D02C7E068001494BF03FBB00002C7E068055
S315800066E02DE9F0470646006994B0884600F1E40734
S315800066F0D0F8E4400AE0E068FCF7FFFAE168054676
S3158000670002464046FCF724FB38B12468BC42F2D1ED
S3158000671014B06FF04D00BDE8F087454428782028F6
S3158000672018BF0028F1D130695027D4F80CA0E9466B
S31580006730D0F8E4403069E430A0421ED0E16850468B
S31580006740FCF7E2FA002818BF2468F3D1B9F1000FEC
S3158000675013D039464846FCF791FAA068FCF7CDFA83
S31580006760791E884228BF0A4603D2A068FCF7C5FA7C
S315800067700246A1684846FCF759FA6846FCF7BDFA16
S3158000678004462846FCF7B9FA20444F2826D918F043
S31580006790ADFE1DA130B1026912689278002A1CBF35
S315800067A0426890474FF4AF7119A01AF0D5F818F0E7
S315800067B09DFE1BA130B1026912689278002A1CBF27
S315800067C0426890472846FCF798FA011916A01AF0F5
S315800067D0C3F814B06FF00B00BDE8F0872846FCF7CD
S315800067E08CFA421C29460DEB0400FCF71FFA68461A
S315800067F0FCF783FA421C69464046FCF717FA14B048
S315800068000020BDE8F08700001B5B33316D0000007F
S315800068100A535348204D5347282564293A200000BF
S315800068201B5B306D00000000737472696E672074A4
S315800068306F6F206C6F6E672E20287374726C656E16
S315800068403A256429000000002DE9F14F0098006880
S31580006850002808BFBDE8F88F0098002680680028C9
S3158000686058D00098B246C0680028C4BF4FF00408CC
S315800068704FF018094ADD00BF00980AEB4A0202EB86
S31580006880CA0281684C2000EBC20001EB000BDBF8EA
S3158000689000405C45276833D0D4E90001002541607B
S315800068A0086026606660A068007900281EDD00BF4B
S315800068B0E06808EB451200EB45118058096880783E
S315800068C010F0800F00F00F0001EB800014BFC0F8BD
S315800068D08C60C0F8CC6009EB4511E06840582BF01D
S315800068E033F9A0686D1C0079A842E1DCE0682AF0E3
S315800068F0C3FF20462AF0C0FF5F453C463F68CBD1A8
S3158000690000980AF1010AC0685045B5DC0098806895
S315800069102AF0B2FF009800682AF0AEFF0098066061
S31580006920BDE8F88F012AD8BF012212F0010FA0F12D
S315800069300100A1F1010103D011F8013F00F8013FE8
S31580006940521008BF70474B784370521E11F8023FB1
S3158000695000F8023FF7D17047F0B5D0E9004783B021
S3158000696016460D46206818B90DA1384628F058F805
S3158000697020686FF00301401C20600F486A6E036830
S3158000698001EBC2016868DB69595800910BA1CDE91A
S3158000699001606B6D384628F043F803B00020F0BDE7
S315800069A0746964207072696F207469636B20637088
S315800069B075206E616D650A0060180120253364209C
S315800069C025346420253464202533642025730A0009
S315800069D070476FF0220070476FF0220070476FF0AB
S315800069E0220070476FF022007047009800281CBF75
S315800069F06FF022010160002070476FF0220070471F
S31580006A006FF022007047000030B50446324883B0EC
S31580006A10214618F0B8FD314D01281CBF286810F0BA
S31580006A20804F25D000201CF0BFF940F28B124FF02A
S31580006A30FF332EA000902AA1CDE901120022012069
S31580006A4011461CF031FA01201CF0AEF900224FF0FD
S31580006A50FF3329A01146009001201CF025FA002260
S31580006A604FF0FF332BA01146009001201CF01CFA3A
S31580006A701948214618F048FD002819BF286810F0EB
S31580006A80804F03B030BD00201CF08EF94FF4C772E2
S31580006A904FF0FF3315A0009011A1CDE9011200221D
S31580006AA0012011461CF000FA01201CF07DF900221D
S31580006AB04FF0FF3318A01146009001201CF0F4F926
S31580006AC000224FF0FF3313A01146009001201CF0E6
S31580006AD0EBF903B030BD0000101E0120E01B012041
S31580006AE04C4646532D6D6F756E74000025732825B0
S31580006AF064293A20000000006465666572206A6F2A
S31580006B0062206973206E6F7420757361626C652173
S31580006B10000000000A0000006465666572206A6FE6
S31580006B206220636F6D6D6974206661696C6564212E
S31580006B300000000019F088BE2DE9F05F3E4E8A46BF
S31580006B401D46DDF82890316811F0020F08BFBDE8B8
S31580006B50F09F3A4CD0E90D3C2142B3FBFCF0B3FBED
S31580006B60FCF3B2FBF0FCB2FBF3F100FB1C221CBF72
S31580006B7033A019F0F1FE00273068204203D037A0F9
S31580006B80394619F0E9FE7F1C202FF5DB002700E04F
S31580006B902FB93068204208D032A019F0DDFE306867
S31580006BA020421CBF30A019F0D7FE7F1C662FEFDB7A
S31580006BB015F01F0F1BD03268681E2021A04612EAEE
S31580006BC0080FB34621EA000703D028A0394619F0FA
S31580006BD0C3FEEF1B002F0ADDDBF8000010EA080F6A
S31580006BE01CBF24A019F0B8FE7F1E002FF4DCB9F17B
S31580006BF0000F4FF0000715DD15F01F0F06D1306826
S31580006C0020420BD019A0294619F0A6FE30682042F2
S31580006C1004D01AF8071018A019F09EFE6D1C7F1C70
S31580006C204F45E9DB3068204208BFBDE8F09F0DA0E4
S31580006C30BDE8F05F19F090BE481B0120020000807D
S31580006C40626C6F636B3A25642C20706167653A25A8
S31580006C50640A616464723A20000000002530326460
S31580006C60200000000A0000003D0000000A253034A4
S31580006C70643A200020202000253032782000000051
S31580006C8070B504460D462E46316822691068FCF7B9
S31580006C903BF840B9206900797168884203D1B460B5
S31580006CA06FF0030070BD0020FCE700002DE9F0477F
S31580006CB004460E4690464FF00009A08A00F47040C4
S31580006CC0F0B9224920462BF0D3FD054635B1002187
S31580006CD02046A84710B14FF0FF3934E0E06858B13C
S31580006CE0606920F070006061606940F48050606186
S31580006CF00020E060206103E0606940F4005060613C
S31580006D00B8F1000F02D14FF000091CE016B94FF020
S31580006D10FF3918E0B768A08A00F47040B0F5805F4C
S31580006D2008D1214607F10C0007F0BCFD50B14FF0A9
S31580006D30FF3907E0214607F1100007F0B3FD08B1DF
S31580006D404FF0FF3900BF4846BDE8F087F5750680ED
S31580006D5070B504460D46E06808B9002070BD20462F
S31580006D60E16800F003F80020F8E7000070B50446FB
S31580006D700E460025B56805B970BD207D00F010006F
S31580006D8040B9286810B1204629688847606940F074
S31580006D90100060611148006802280CDB207D00F03D
S31580006DA0200040B9686810B12046696888476069E4
S31580006DB040F0200060610948006803280CDB207DD4
S31580006DC000F0400040B9A86810B12046A9688847FD
S31580006DD0606940F04000606100BFCDE70018012087
S31580006DE010B5A0F1240440682AF081FE94F834108E
S31580006DF000291CBF206830F0C6F8A06C002818BF98
S31580006E002AF03AFDE06C002818BF2AF035FD206D87
S31580006E10002818BF2AF030FD206C002818BF2AF001
S31580006E202BFD606C002818BF2AF026FD04F1540063
S31580006E30FFF70AFDE06F2AF087FE2046BDE8104086
S31580006E402AF01ABD704700002DE9F04FF6A20446DD
S31580006E50AFB0F7A0D2E9001207AECDE92212D0E991
S31580006E600010CDE904101D2108A8FBF707FFDFF805
S31580006E70C883F2A1D8F81000079008682890D4F843
S31580006E80440523F0AFFF05004FF0000765D014A935
S31580006E9024F0DFF906A9284624F005FA10A9284629
S31580006EA024F05CFA284623F073FFBDF84000010AFF
S31580006EB08DF8A210B4218DF8A30004F28C40FBF764
S31580006EC0DDFE149D1F22CDF81250DDA10698CDF867
S31580006ED08A00D4F848051590B01CFBF7A7FE03235B
S31580006EE009361A463146E8B250F0B0FE03234FF019
S31580006EF02E09311D1A468DF82890C5F3072050F0CB
S31580006F00A5FE03238DF82C9006F108011A46C5F3D9
S31580006F10074050F09BFE03238DF83090280E1A46CA
S31580006F2006F10C0150F092FE02258DF879504FF44F
S31580006F308640ADF87A00149801261F90002084F8C8
S31580006F4041650246294624902590284641F0B2FAAA
S31580006F50B0F1FF3F07460AD01EE084F84175C0A015
S31580006F60D4F8441519F0F8FC2FB0BDE8F08F94F8EA
S31580006F704005002800F07F83C0A019F0EDFC4FF497
S31580006F80FA6023F023F802210022084641F092FAA3
S31580006F90B0F1FF3F0746EAD0102238461EA940F0DE
S31580006FA0F9F990B194F84005002800F06483BDA0FB
S31580006FB019F0D2FC4FF4FA6023F008F81022384614
S31580006FC01EA940F0E7F90028ECD115A83FF006FF8E
S31580006FD0D4F84C250146BBA019F0BEFCFA171AA9B5
S31580006FE007EB527300201A9001EBE30207F0070CBF
S31580006FF0117806FA0CF941EA0901117094F84015E6
S31580007000002900F0388329A90DF1900A01EBE308E5
S315800070101A980023CDF800A029A91A462990781C31
S3158000702040F006FC00281DDD98F8000010EA090FE4
S3158000703018D02AA816AA10212A91CDE9002000236B
S3158000704038464FF4167204F5AA6140F08DFA011E97
S315800070500ADCA5A019F080FC5FF0140022F0B6FFD0
S3158000706000F004BB6420F9E794F8421604F5AA659B
S31580007070A6A019F071FC95F8F200012803D0032828
S315800070807DD000F0F3BA04F5F5662946F122304644
S31580007090FBF7CCFD06F1F0004FF0020B40F2131126
S315800070A086F800B0FBF7EAFDD5E907011BAD06229D
S315800070B0CDE91B0104F28C402946FBF733FE0028FC
S315800070C008BFD4F894042BD00622294604F596608E
S315800070D0FBF728FE002808BFD4F8B80420D0062283
S315800070E0294604F2D440FBF71DFE002808BFD4F8D9
S315800070F0DC0415D00622294604F59F60FBF712FEB4
S31580007100002808BFD4F800050AD00622294604F2D2
S315800071101C50FBF707FE00280CBFD4F824051598F1
S315800071200146069031610322434906F1F000D1F809
S315800071300910C6F8EC104049FBF778FD0622C01C02
S3158000714004A9FBF773FD76490622801DFBF76EFDC9
S315800071500622801D22A9FBF769FD2122801D07A931
S31580007160FBF764FD049B0322C0F821300621BDF89D
S315800071701430A0F8253080F82120049A00E02DE014
S31580007180C0F82720BDF81420A0F82B20042280F810
S3158000719027102D3028A9FBF749FDFF220271401DDB
S315800071A04FF0100C821B4FF0FF3316A88DF859B0A4
S315800071B0CDE9000C4FF488413846ADF85A1004F5F5
S315800071C0F5611793002340F0A7FE06A83FF006FE60
S315800071D0014654A019F0C0FB00F048BA002604F519
S315800071E0F5600390362205F1F00005F5017302E0A3
S315800071F04178801C08440178FF291CBF914298423F
S31580007200F6D3C9B2914240F03182801C00F02E82C2
S3158000721000681499814204BF0C2205F1F00001D068
S3158000722000F024BA8BE0000001040000000000009A
S3158000723036040000000000004C7406801A0200002C
S31580007240687474703A2F2F7878782E7878782E78BC
S3158000725078782E7878782F777061642E64617400E0
S3158000726044484350533A2063616E27742073746197
S31580007270727420666F722025730D0A00444843504D
S31580007280533A2063726561746520736F636B6574AE
S31580007290206661696C6564212072657472792E2E10
S315800072A02E0D0A0044484350533A2062696E64208A
S315800072B06661696C6564212072657472792E2E2EE2
S315800072C00D0A000044484350533A206F6666657243
S315800072D02069702066726F6D2025732C206C696D15
S315800072E069742025640D0A0044484350533A20723D
S315800072F065637666726F6D206661696C6564212050
S315800073006572723D25640D0A0000000044484350B2
S31580007310533A20726563762025640D0A00000000CA
S315800073206074068044484350533A206F666665729F
S315800073302025730D0A0000004178801C08440178DE
S31580007340FF291CBF91429842F6D3C9B2914207BF2A
S3158000735090F801B0801C00208346F1221290039899
S315800073602946FBF763FCD5E90701322205F501734F
S31580007370CDE91B0105F1F00002E04178801C08444C
S315800073800178FF291CBF91429842F6D3C9B2914237
S315800073900CBF801C0020016802202B910399087085
S315800073A040F213110398F030FBF768FCC1481BAD1F
S315800073B00622D0F809100398F03001900398C0F89F
S315800073C0EC1004F28C402946FBF7ACFC002804BF85
S315800073D0D4F8940406902ED00622294604F59660A9
S315800073E0FBF7A0FC002808BFD4F8B8043CD00622DE
S315800073F0294604F2D440FBF795FC002808BFD4F850
S31580007400DC0431D00622294604F59F60FBF78AFC0E
S31580007410002808BFD4F8000526D00622294604F2A3
S315800074201C50FBF77FFC00280FBFD4F82405159865
S315800074300126069018D0042206A92BA8FBF772FC19
S315800074404FF0030290B19C490198FBF7EFFB0622AF
S31580007450C01C04A9FBF7EAFB01460020891D0191A7
S315800074600399086100F0D8B80690E4E7934901983B
S31580007470FBF7DCFB0622C01C04A9FBF7D7FB90496F
S315800074800622801DFBF7D2FB0622801D22A9FBF770
S31580007490CDFB2122801D07A9FBF7C8FB049B032295
S315800074A0C0F821300621BDF81430A0F8253080F8C8
S315800074B02120049AC0F82720BDF81420A0F82B209C
S315800074C0042280F827102D3028A9FBF7AFFB0699F8
S315800074D0001D0190012E0398016104BFD4F8942405
S315800074E0D4F84C1520D1159800F1807015908842FB
S315800074F004BFD4F84805159090421CBFD4F8B83420
S315800075009842F0D0D4F8DC3498421FBFD4F80035C6
S315800075109842D4F824359842E5D015A83FF05EFC11
S31580007520014668A019F018FA0025CDF800B00526A6
S315800075301BA9119105EBC501062204EB810B11995C
S315800075400BF28C40FBF7EEFB10B1052E20D028E025
S315800075500098182824BF17200090052D29D005EB08
S31580007560C5021298069904EB82050028C5F8941482
S315800075701CBF009800284FD0009A05F59360129999
S31580007580FBF754FB00982918002081F8980443E003
S31580007590514906220BF28C40FBF7C4FB002808BF3A
S315800075A02E466D1C052DC5D30098182824BF17209C
S315800075B00090052E14D0119906EBC603129804EBA1
S315800075C0830500280A68C5F88C248988A5F8901454
S315800075D00699C5F894141CBF009800281CD0CBE7E8
S315800075E01199129A002AD1F800C0C4F88CC48988EF
S315800075F0A4F890140699C4F894141CBF0098002827
S315800076000AD01299024604F59360FBF70FFB0099A6
S315800076100020214481F89804FF200199022210233A
S31580007620D51E4FF4884C087016A901988DF85920FC
S315800076301795401C039ACDE90013821A3846002319
S31580007640ADF85AC004F5F56140F066FC0398007CFD
S3158000765040B90398407C28B90398807C10B9039878
S31580007660C07CD0B11DA019F077F900BF94F8400511
S3158000767000287FF4CDAC1EA0394619F06DF90020A4
S31580007680C4F84805C4F84C0538463FF0F9FE00209A
S3158000769084F841052FB0BDE8F08F2B98010E00913C
S315800076A0C0F30743C0F30722C1B219A019F054F9F9
S315800076B0DCE700004C740680527406804F740680A6
S315800076C06074068044484350533A204E657874204F
S315800076D069702025730D0A006674068044484350FD
S315800076E0533A20444843502041434B0D0A00000042
S315800076F044484350533A207368757474696E6720A2
S31580007700646F776E20736F636B2025640D0A0000AB
S3158000771044484350533A2044484350204E414B20DE
S3158000772025642E25642E25642E25640D0A0000000E
S3158000773030B50546006985B0C46804F114000FC8E9
S315800077408DE80F00D4E901200B4B00F5807105F11F
